:100000006F00704E00000000280A00002C0A00005B
:1000100000000000000000000000000000000000E0
:1000200000000000000000000000000000000000D0
:10003000B40C000000000000B60C0000000000003E
:10004000B80C0000BA0C0000BC0C0000BE0C000094
:10005000C00C0000C20C0000C40C0000C60C000064
:10006000C80C0000CA0C0000CC0C0000CE0C000034
:10007000D00C0000D20C0000D40C0000D60C000004
:10008000D80C0000DA0C0000DC0C0000CC030000EF
:10009000E00C0000E20C0000020400000000000080
:1000A000511126C022C206C4828282441244A24058
:1000B000310182802A86014593F6150091C232955E
:1000C00085810606F5F9828000000000634E050276
:1000D00063C305042E86AA857D5515C285466378BF
:1000E000B6006356C00006068606E36CB6FE014500
:1000F00063E4C500918D558D85820582F5FA828075
:100100008682C93F2E8582823305A04063D70500D1
:10011000B305B040C1B7B305B0408682653F330533
:10012000A0408282868263C70500634905005D376F
:100130002E858282B305B040E35B05FE3305A04007
:10014000513F3305B04082820000EFF27FF551113C
:100150008545414502C002C202C4EF00D06F414450
:100160008D44930700048A85371501407C8022C4A2
:1001700026C2EF00104A930700028A853715014016
:100180007C8022C426C2EF00D0488A853715014002
:10019000608022C426C2EF00D047A1478A85371568
:1001A00001407C8022C426C2EF00B0463101F5BD7B
:1001B000EFF21FEFAA842144930500023715014096
:1001C000EF00705393F714009305000437150140B6
:1001D0008DC7EF0010520945EF10C00993050002CA
:1001E00037150140EF00F0507D1409451374F40FEA
:1001F0008580EF10200869F04DBDEF00D04FE1BFC2
:10020000EFF21FEAC14537150140EF00D04E05451A
:10021000EF1040061305800E613FC14537150140C0
:10022000EF00304D59B5EFF2BFE72A84AE843715A1
:100230000140C145EF00304C0545EF10A003130508
:1002400004021375F50FAD3726859D37C145371567
:100250000140EF00104A91BDEFF29FE4C1452A84AE
:1002600037150140EF0030491305400E9137054521
:10027000EF10400022852D3FC14537150140EF00AA
:1002800050470545EF00107F0DB5EFF27FE12A845E
:100290006D3DA14537150140EF00F0452945EF10B0
:1002A0000001A14537150140EF00B044C1453715A5
:1002B0000140EF0050441305000EDD3D0945EF00FD
:1002C000707B1D45F535C14537150140EF00704283
:1002D0000945EF00307AC14537150140EF00B041C4
:1002E0001305400EF1350945EF00D0781305F00FE6
:1002F000C135C14537150140EF00B03F0945EF005A
:1003000070772285913F55B3EFF29FD9B7370140FF
:10031000938707C031112A84AE84631EF5060565F4
:10032000B707002085451305058023A4C702EF0009
:100330009052930730025C80054685452285EF0088
:10034000905D8D475C810A8585473EC2A300010010
:10035000EF00103BB1679387073563F39706856716
:100360009387F72B9305400626857C84A5337D155E
:100370006886B7370140938707C06314F4002308E9
:1003800001002C0022852317010023150100EF0036
:100390003052510119BBB7070040E314F5FAB70713
:1003A00000209387870285450545D0C3EF00904C18
:1003B000930760025C80054685453705004041B7DC
:1003C0009307F002FD147C84648665B7711122C026
:1003D000373401408545130504C0EF00F05411CDBA
:1003E0008545130504C0EF00B055B707002093877B
:1003F0008702984319C39C438297024411017300FA
:100400002030854537050040EF00105211CD85455D
:1004100037050040EF00D052B707002093878702CE
:10042000D84319C3DC43829773002030EFF25FC7D3
:1004300051118545130500023714014002C002C264
:1004400002C4EF0050419304800489478A85130554
:1004500004407C8026C4EF00D01B91478A85130599
:1004600004407C8026C4EF00D01AA1478A8513057A
:1004700004407C8026C4EF00D01931013DB1EFF279
:100480003FC2511102C09307000802C27C8001CD17
:10049000C1473EC48D473EC28A8537150140EF00F3
:1004A0005017310119B191473EC4FDB7EFF25FBF5C
:1004B0000545F1379305000837150140EF0070231B
:1004C00013058007EF00105B930500083715014006
:1004D000EF00702213050019EF00D05993050008B2
:1004E00037150140EF00F02013054006EF0090584B
:1004F000014571379305000837150140EF00D01E04
:100500002A8413052003EF00F056228579BEEFF20E
:100510003FB9A144014405459D37930500083715AF
:100520000140EF00501D0945EF00D054930500082D
:1005300037150140EF00F01B014591379305000886
:10054000371501400580EF00301A09C5136404F81F
:100550001374F40FFD141305C00393F4F40FEF00AC
:100560007051D5F8228591B6EFF29FB3AA84214449
:10057000054531379305000837150140EF00B017E6
:100580000945EF00304F93F7140093050008371525
:1005900001409DC3EF00F0151305C003EF00904D1F
:1005A0007D1493050008371501401374F40FEF0014
:1005B0005014858055FCD5BCEF00F013F1BFEFF26D
:1005C0003FAEED3585476304F5000145F9BC03A74F
:1005D00001813E84050723A8E1806319A700F9354E
:1005E0001305C00C513713054004BD3F03A701811B
:1005F0009307E02EE3FBE7FC23A80180453D1305AC
:10060000C00C9D371305E00B853711372A8401375D
:100610009357440093F7F70F120589655D8D938515
:100620000571493C1377F40093172700BA978E079A
:10063000998F9207BA973E9551BFEFF27FA651115D
:100640008545414502C002C202C4EF00D0200D44DE
:100650009147D1448A85371501407C8026C422C247
:10066000EF00207B89478A85371501407C8026C4AE
:1006700022C2EF00007A85477C808A85C147371502
:1006800001403EC422C2EF00C078914537150140B9
:10069000EF003006894537150140EF00900585458C
:1006A00037150140EF00300531016FF01FA0EFF268
:1006B0003F9FAA842144914537150140EF00B003C4
:1006C00093F7140089453715014099CFEF00700268
:1006D0007D149145371501401374F40F8580EF00A8
:1006E000500171F86FF07F9CEF00F000D5B7EFF28A
:1006F0003F9BAE842A84854537150140EF00A07FDB
:100700001545EF003037914537150140EF00A07EC9
:100710001545EF003036854537150140EF00607D07
:100720001545EF00303522855937A9452685EFF06C
:100730007F9A1375F50F13144500A9452685EFF030
:100740003F9C418D1375F50F9D3785453715014049
:10075000EF00607A6FF07F95EFF29F942A848545D1
:1007600037150140EF0020791545EF00B030914575
:1007700037150140EF0020781545EF00B02F854573
:1007800037150140EF00E0761545EF00B02E2285C9
:10079000393FA1440144914537150140EF00A07550
:1007A0008945371501400580EF00007409C51364C1
:1007B00004F81374F40FFD1491453715014093F4B8
:1007C000F40FEF000073E1F8854537150140EF00A5
:1007D00080721545EF00102A914537150140EF0052
:1007E00080711545EF001029914537150140EF0044
:1007F00040701545EF001028894537150140EF007E
:10080000806F1545EF001027894537150140EF002F
:10081000406E1545EF0010269377F40011801315F4
:1008200024002A94131514003E951375F50F6FF0EC
:10083000DF87EFF2FF8671112A849304100819C133
:10084000930470081305E00881455535138564004D
:1008500019E0138544001375F50FFD3D2A841385B7
:1008600024001375F50FCD3D2AC02685F535896521
:10087000AA84938505712285EFF0DF838247269550
:1008800093050008139417003E940E043E940A0446
:100890002A941305E008A13D228511016FF0FF8025
:1008A000EFF21F80511185451305000202C002C2FC
:1008B00002C4EF00407A8547371501407C808A8565
:1008C00093078002130505403EC4A12331016FF058
:1008D000CFFDEFF2EFFC21112A84AE841305002036
:1008E0008545EF0040778947854541456304F4001D
:1008F00013050002EF0020763165752589476312E4
:10090000F408C14723110100231201002313010041
:1009100023140100231501007C808A8537150140CE
:10092000CD29931714003E94B394840037240140DA
:1009300013040440228504C80D29B7070E003EC6E3
:100940008A8585472285230AF10002C002C202C4BB
:1009500002C83D29228585455921228549292285BC
:10096000612975FD372501401305054037240140F5
:100970004129130404402285492975FD61016FF066
:10098000CFF28D476314F4022311010023120100FA
:10099000231301002314010023150100914737158B
:1009A00001407C808A85130505409DBF9147631EE9
:1009B000F40023110100231201002313010023146A
:1009C000010023150100A147D9BF9D47631EF40014
:1009D000231101002312010023130100231401003D
:1009E00023150100C14765BF9547631FF40023111C
:1009F0000100231201002313010023140100231519
:100A000001009307000261BF9947E31CF4F0231132
:100A100001002312010023130100231401002315F8
:100A2000010093070004A5BF7300203001A082805D
:100A3000EFF20FE761112AC0AE8421449307F4FF5F
:100A40008C2093F7F70F3E853EC2EFF0CFFD8C3040
:100A50002285EFF04FFDAC20130514001375F50F40
:100A6000EFF06FFCAC30130524001375F50FEFF0B9
:100A70008FFBCC20130534001375F50FEFF0AFFAA0
:100A8000CC30130544001375F50FEFF0CFF9EC20CF
:100A9000130554001375F50FEFF0EFF8EC30130564
:100AA00064001375F50FEFF00FF8EFF06FF50245E6
:100AB000EF00E07F92473E84D1F321016FF0EFDE3B
:100AC000EFF20FDE09451529EF00807771651305F8
:100AD0000520EF007001B707002083A50700372528
:100AE00000001305C594EF001064EFF01FB54D3BF7
:100AF000EFF0DF939D451D45E93B05451D3B938781
:100B0000418109679305077188C3AA84EFF08FDCE0
:100B100093054006EFF0CFDE1384818008A0930593
:100B200040062685EFF00FDB93054006EFF04FDD22
:100B30009305400608B02685EFF08FDC28A001451C
:100B4000CD399387418109679305077188C3AA84CA
:100B5000EFF04FD893054006EFF08FDA28B09305F9
:100B600040062685EFF00FD793054006EFF04FD9EA
:100B70009305400648A02685EFF08FD848B0EFF0E7
:100B80001FA4371600001306E6A29305803E370522
:100B90000040EFF06FF78545370500408D231305C2
:100BA000F007EFF08FEE938581811305D00749356B
:100BB00001A0B71702409843B706FFFC6111136705
:100BC000170098C3D8432166758FD8C39843B706DA
:100BD000F7FEFD16758F98C39843B706FCFFFD1608
:100BE000758F98C3D843C176FD16758FD8C3370764
:100BF0009F0098C702C002C2984FB7060140136712
:100C0000170098CFD842518FD8C29843C166370693
:100C10000200558F98C3B716024009679C42F18FB6
:100C20003EC2824785073EC0924781E78247E397ED
:100C3000E7FEB71702409C431397E7006358070687
:100C400085473EC2124785476310F706B727024023
:100C50009843C176FD16719B98C39843136717009C
:100C600098C3B7170240D843D8C3D843758FD8C3A9
:100C7000D843C166558FD8C39843B7060001558F36
:100C800098C3984393166700E3DD06FED843B71672
:100C90000240719BD8C3D84313672700D8C32147AC
:100CA000DC42B18BE39EE7FE2101828002C259BF84
:100CB00001A001A001A001A001A001A001A001A02C
:100CC00001A001A001A001A001A001A001A001A01C
:100CD00001A001A001A001A001A001A001A001A00C
:100CE00001A001A001A097010020938121B41381EC
:100CF00081FD17150000130525C797F5FF1F938584
:100D0000653017F6FF1F1306663263FAC5008322AB
:100D1000050023A0550011059105E3EAC5FE17F56E
:100D2000FF1F1305A530938581826377B5002320CB
:100D300005001105E36DB5FE9302000873900230C3
:100D40008D427390428097F2FFFF9382A22B93E231
:100D5000320073905230EFF0DFE59702000093828B
:100D600062D67390123473002030B7270140938706
:100D70000740631EF500EFF2AFB285451305002072
:100D8000092E81451305002029266FF00FB28280BD
:100D90005C413707F1FF1307F7EF7D8FDC4194418A
:100DA000A207D58FD98F5CC11C4537F7F1FF130718
:100DB000D77FD4457D8F9C49D58F94458606D58FA6
:100DC000D98F1CC55C55370710FF7D177D8FDC2937
:100DD000FD1793F7F70FD207D98F5CD582801C459A
:100DE00089C593E717001CC58280F99BEDBF1C45A0
:100DF00093E787001CC5828008450D8105898280A4
:100E00001C4593E747001CC5828008450981058978
:100E100082809C45611122C226C013F7070113F39B
:100E2000F70001C7D8413363E30092211377F60F2F
:100E300029C783230500014713048002930480041B
:100E40008546B395E600B376B6006392D502931259
:100E50002700BD46B396560093C6F6FFB3F376005F
:100E6000B3125300B3E37200639787064CC90507BA
:100E7000A146E317D7FC232075001307F00F637812
:100E8000C70483234500A146130480029304800411
:100E90000547B312D700337756006394E2021397E5
:100EA00026000117BD45B395E50093C5F5FFB3F3E3
:100EB00075003317E300B363770063928702232A38
:100EC000550085064147E395E6FC23227500124450
:100ED000824421018280E39C97F80CC949BFE392C8
:100EE00097FE23285500F1BF08456D8D3335A000CE
:100EF00082800CC982804CC9828023A0A18282801A
:100F0000938701829443182181E63C21920721A80E
:100F100094430546639FC6023C2110319207631437
:100F2000D60093E707F8B7E600E093F7F70FBA9615
:100F30002380F6408546935757003397E600544187
:100F4000A5C2938707048A07B7E600E0B69798C35F
:100F500082808C4389466391D50214313C216365BC
:100F6000D6008A06B6975DB79386E6038A06B697DB
:100F700093F7F70F920775B790438D46631CD60021
:100F800014313C216364D6008606E9BF9386C60708
:100F90008606F1BF94439147E39EF6F81C31BDB736
:100FA000938707064DB7B7160240DC424177130717
:100FB000F77FF98F5D8DC8C28280EFF26F8E371791
:100FC00002405C4391462A84B18B6385D700A146D9
:100FD000638DD706B7376E01938707601CC0B716BD
:100FE0000240DC42918313F7F700B7070020938794
:100FF0008701BA978C23DC42184093F5F50F93F7DD
:1010000007083355B70081E73A85EFF0AF8C48C049
:1010100008C448C4B7170240DC43AD83FD8B13D727
:1010200037008A07F18BD98F93F637010D47637329
:10103000D700D1173707002013074700BA978C2332
:10104000EFF04F8908C86FF04F865C43B777DC023A
:10105000938707C061B799C5371702401C4F5D8D54
:1010600008CF8280B7170240984F1345F5FF798D5E
:1010700088CF828099C5371702405C4F5D8D48CF7D
:101080008280B7170240D84F1345F5FF798DC8CF3E
:10109000828099C5371702405C475D8D48C78280C2
:1010A000B7170240D8471345F5FF798DC8C782802E
:1010B0001E2137370140130707C0C207C1836306EB
:1010C000E500370700406316E500BA2193F7F7F80B
:1010D000D98FFA2193F7F7CFC207C183D98F1EA109
:1010E000DE215EB59E211EB5B7370140938707C04C
:1010F0006314F5009C251EB985475EA982801E21D8
:1011000089C593E717001EA18280C207C183F99B9E
:10111000C207C183CDBF5E2501C6DD8D4EA582808D
:1011200093C5F5FFFD8DDDBF1E294A25ED8F4205D4
:10113000418189C76D8D3335A00082800145828051
:1011400093C5F5FFC205C1810EA98280EFE25FF56C
:101150001629F577FD17F58FF621DA252111D58FA0
:101160001EA95625FD779387379FF58FD6212A84B0
:101170002EC0D58F9625D58FB625D58F5EA55E2935
:10118000C207C18393F7F7CF5D8F5AA94800353561
:10119000B74701409387078082456312F406C24730
:1011A0005A24139517003E9542070E0541873E9538
:1011B0008C41635807048605EFE0DFF19305400694
:1011C0002AC0EFE03FF182479314450093054006A3
:1011D0003E85EFE0FFF25E24C207C18763D50702B8
:1011E0000E059305400613052503EFE0BFEE1D89AC
:1011F000C98CC204C18006A461016FE01FEBB24735
:1012000045B78A0555BF120593054006130525030A
:10121000EFE05FEC3D89E9BF91C55E250967D98F95
:101220005EA582805A25F977FD17F98FD5BF93F512
:10123000F51F4EA182800A216D8D3335A00082807A
:10124000EFE21FE6B707002003A50700B7157A00F5
:1012500093850520EFE01FE81375F50F2383A18226
:1012600093175500898F8A073E950E052392A18218
:101270006FE0BFE3EFE2DFE237F400E05C40AA8515
:10128000F99B5CC003C56182EFE0DFE208C823245C
:1012900004001C4093E717001CC0B7F700E0D843D8
:1012A000058B75DF9843799B98C36FE01FE0EFE2F1
:1012B0003FDF37F400E05C40AA85F99B5CC003D5B2
:1012C0004182EFE03FDF08C8232404001C4093E77D
:1012D00017001CC0B7F700E0D843058B75DF9843B3
:1012E000799B98C36FE07FDCEFE29FDB2A84116576
:1012F0001111854513050502B93B930700027C8057
:10130000371501408D473EC28A85E14713050540E8
:101310003EC4EFF01FB022C637440140B7070800B3
:101320006C00130504803ECA02C8231C0100393D2D
:10133000854513050480CD3571016FE01FD7EFE2BD
:101340003FD67111AE840144635DC402B7470140CA
:10135000138707803A859305000432C0E93DB747FB
:10136000014013870780024675D5338784008305C3
:101370000700138507800504C205C1814D3D024663
:10138000E1B7328511016FE05FD2411106C62EC070
:101390000DCD1841AA8705C358417D5511CB85460F
:1013A000631BD70098472300070023A207000545C9
:1013B000B240410182809847824614A398470507AE
:1013C00098C7D8437D17D8C3DDB705468A85853FC2
:1013D000F9BF011122CC2EC206CE26CA2A8481472B
:1013E00093050002634506029245BE95838505007C
:1013F0008DE563D8C70263D4E702198E1305000296
:1014000093F526002AC089C501E7930500032EC085
:10141000858A814495EAB2840DA08507F1B71D8EB7
:10142000F1BF0146E1BF824522853AC832C63EC4BB
:10143000A93FA24732464247FD14E34690FEB284DC
:10144000635306008144058E63C7E702A687924670
:101450003387974036978305070095EDB284634440
:101460009004635306000146F2406244D2443305BF
:10147000F600056182801D8FBA87930500032285DF
:1014800032C83EC63AC41137B24722474246FD171A
:10149000EDF7BA9465BF228532C63EC4FD35A2473A
:1014A000324685076DB78245228532C43EC2F13D82
:1014B000FD142246924765B7397106DE22DC26DA32
:1014C0003EC232833A8689ED924693070003014774
:1014D0006C08FC86FD3DF2506254D254216182803A
:1014E000AA843684AE8791CA294701446317E30072
:1014F00063D50500B307B04005448646A309010241
:1015000013073103938666FC36C49A853E8532CA3A
:101510003AC81AC63EC0EFE0BFBEA5468247324376
:101520004247524663D4A600A246369513050503EA
:101530009306F7FFA30FA7FE9A853E8532CC3ACAE1
:101540001AC83EC636C0EFE0FFB8B2474243524722
:10155000624663F9670401CC29CA9247898BB1C7F7
:101560009305D002268532C40D3522467D1692475A
:10157000918B95C306479307100632C49305000369
:101580002685631EF7021135930580072685F53BF6
:101590002246090479161647924682452685153D4E
:1015A000229515BFAA8702478DB782469307D002BE
:1015B0000144A38FF6FE9307E7FF3EC04DBFF13312
:1015C00093058005E1B701458280014582801301C2
:1015D00081FD22D026CE06D22AC4AE82328402C633
:1015E00081448385020089EDA24781C781453E85FC
:1015F000693B925002542685F24413018102828095
:10160000930750026388F500224516C88504B53B50
:10161000C24239A88387120013871200639CB70067
:101620002245930550023AC88D3342478504BA8259
:10163000850245BFD5DB9306B0026389D70463C832
:10164000F600930630026386D704814705A093060F
:10165000D002638AD70093060003E398D7FE13876E
:101660002200894721A013872200854783060700AF
:101670001306B0026383C6046341D6021306300228
:10168000638BC602BA820145A54681A0138722005A
:101690006DBF138722009147D1BF1306D002638923
:1016A000C60013060003E39FC6FC93E7270031A0A2
:1016B00005078547C1BF93E747000507E1B7131644
:1016C0002500329506053A95850203860200130728
:1016D00006FD9375F70FE3F4B6FE1307E002994693
:1016E000631EE60085028146A545038602001306B7
:1016F00006FD1377F60F63F5E50236C60387020091
:101700001306A006630DC70A6343E6021306C0046E
:101710006307C70A13068006630CC70881452DA816
:1017200013972600BA968606B29685027DBF1306E9
:1017300040076306C7081306A0076302C70813061D
:10174000C0068145631AC700038612008D456314E5
:10175000E600850291458502038602009303000698
:101760001307100663C4C300130710049303700625
:1017700063C4C3069303500663557618930370043D
:1017800063C1C30493055004635DB61613073004A8
:10179000E310E6EA18409303440016CA230CE10064
:1017A0001EC8A30C01000147BE862A862C0849A842
:1017B000038612008145E311E6FA890271BF8502B2
:1017C000B1BF93063006E307D6FC63CFC606930687
:1017D00080056303D602A9BD930630076304D604CF
:1017E00063CBC6029306F0066304D60E9306000789
:1017F00093E74700E31ED6E291466391D50C93032D
:1018000084000C40504016CA3AC23EC01EC8AA8787
:101810000147C14681A893065007630AD60693067E
:10182000800745BF1840B726000093034400938506
:10183000C69511C3BA85324716CA1EC8BE862A8607
:101840002245EFF01FB90DA091466394D502930392
:1018500084000C40504016CA3AC23EC01EC8AA8737
:101860000547A94622458533C243AA941E84D24225
:10187000C1B3B2460C4016C836C23AC011042A871A
:10188000854629462245EFF03FC3AA9451B39146BD
:10189000639DD500930384000C40504016CA3AC2A1
:1018A0003EC01EC8AA8701476DBFB2460C4016C88D
:1018B00036C23AC011042A878146E1B7B24616C83B
:1018C0000C40414636C23AC011042A8781465DBFAA
:1018D0009146639ED500930384000C40504016CA85
:1018E0003AC23EC01EC8AA870147A146A5BFB2465C
:1018F0000C4016C836C23AC011042A8781462146D8
:1019000051B70C401306840040403AC22A87224552
:1019100032C83EC02286B687A94616CAEFF0FFCA73
:10192000AA944244A9B71301C1FD2EC832CAAA85A0
:101930001008014506C636CC3ACE3ED032C0EFF094
:101940001FC9B240130141028280000053797374B1
:10195000656D436C6B3A25640D0A0000286E756C4A
:041960006C290000EE
:10196400006CDC020204060804080C10081018209D
:10197400102030402040608001020304050607085F
:08198400010203040506070837
:00000001FF
